{
  "_format": "hh-sol-artifact-1",
  "contractName": "TokenVaultV2",
  "sourceName": "contracts/TokenVaultV2.sol",
  "abi": [
    {
      "inputs": [],
      "stateMutability": "nonpayable",
      "type": "constructor"
    },
    {
      "anonymous": false,
      "inputs": [
        {
          "indexed": false,
          "internalType": "address",
          "name": "previousAdmin",
          "type": "address"
        },
        {
          "indexed": false,
          "internalType": "address",
          "name": "newAdmin",
          "type": "address"
        }
      ],
      "name": "AdminChanged",
      "type": "event"
    },
    {
      "anonymous": false,
      "inputs": [
        {
          "indexed": true,
          "internalType": "address",
          "name": "beacon",
          "type": "address"
        }
      ],
      "name": "BeaconUpgraded",
      "type": "event"
    },
    {
      "anonymous": false,
      "inputs": [
        {
          "indexed": true,
          "internalType": "address",
          "name": "user",
          "type": "address"
        },
        {
          "indexed": false,
          "internalType": "uint256",
          "name": "amount",
          "type": "uint256"
        },
        {
          "indexed": false,
          "internalType": "uint256",
          "name": "fee",
          "type": "uint256"
        }
      ],
      "name": "Deposit",
      "type": "event"
    },
    {
      "anonymous": false,
      "inputs": [
        {
          "indexed": false,
          "internalType": "bool",
          "name": "paused",
          "type": "bool"
        }
      ],
      "name": "DepositsToggled",
      "type": "event"
    },
    {
      "anonymous": false,
      "inputs": [
        {
          "indexed": false,
          "internalType": "uint256",
          "name": "newFee",
          "type": "uint256"
        }
      ],
      "name": "FeeUpdated",
      "type": "event"
    },
    {
      "anonymous": false,
      "inputs": [
        {
          "indexed": false,
          "internalType": "uint8",
          "name": "version",
          "type": "uint8"
        }
      ],
      "name": "Initialized",
      "type": "event"
    },
    {
      "anonymous": false,
      "inputs": [
        {
          "indexed": true,
          "internalType": "bytes32",
          "name": "role",
          "type": "bytes32"
        },
        {
          "indexed": true,
          "internalType": "bytes32",
          "name": "previousAdminRole",
          "type": "bytes32"
        },
        {
          "indexed": true,
          "internalType": "bytes32",
          "name": "newAdminRole",
          "type": "bytes32"
        }
      ],
      "name": "RoleAdminChanged",
      "type": "event"
    },
    {
      "anonymous": false,
      "inputs": [
        {
          "indexed": true,
          "internalType": "bytes32",
          "name": "role",
          "type": "bytes32"
        },
        {
          "indexed": true,
          "internalType": "address",
          "name": "account",
          "type": "address"
        },
        {
          "indexed": true,
          "internalType": "address",
          "name": "sender",
          "type": "address"
        }
      ],
      "name": "RoleGranted",
      "type": "event"
    },
    {
      "anonymous": false,
      "inputs": [
        {
          "indexed": true,
          "internalType": "bytes32",
          "name": "role",
          "type": "bytes32"
        },
        {
          "indexed": true,
          "internalType": "address",
          "name": "account",
          "type": "address"
        },
        {
          "indexed": true,
          "internalType": "address",
          "name": "sender",
          "type": "address"
        }
      ],
      "name": "RoleRevoked",
      "type": "event"
    },
    {
      "anonymous": false,
      "inputs": [
        {
          "indexed": true,
          "internalType": "address",
          "name": "implementation",
          "type": "address"
        }
      ],
      "name": "Upgraded",
      "type": "event"
    },
    {
      "anonymous": false,
      "inputs": [
        {
          "indexed": true,
          "internalType": "address",
          "name": "user",
          "type": "address"
        },
        {
          "indexed": false,
          "internalType": "uint256",
          "name": "amount",
          "type": "uint256"
        }
      ],
      "name": "Withdrawal",
      "type": "event"
    },
    {
      "anonymous": false,
      "inputs": [
        {
          "indexed": true,
          "internalType": "address",
          "name": "user",
          "type": "address"
        },
        {
          "indexed": false,
          "internalType": "uint256",
          "name": "amount",
          "type": "uint256"
        }
      ],
      "name": "YieldClaimed",
      "type": "event"
    },
    {
      "anonymous": false,
      "inputs": [
        {
          "indexed": false,
          "internalType": "uint256",
          "name": "newRate",
          "type": "uint256"
        }
      ],
      "name": "YieldRateUpdated",
      "type": "event"
    },
    {
      "inputs": [],
      "name": "DEFAULT_ADMIN_ROLE",
      "outputs": [
        {
          "internalType": "bytes32",
          "name": "",
          "type": "bytes32"
        }
      ],
      "stateMutability": "view",
      "type": "function"
    },
    {
      "inputs": [],
      "name": "PAUSER_ROLE",
      "outputs": [
        {
          "internalType": "bytes32",
          "name": "",
          "type": "bytes32"
        }
      ],
      "stateMutability": "view",
      "type": "function"
    },
    {
      "inputs": [],
      "name": "UPGRADER_ROLE",
      "outputs": [
        {
          "internalType": "bytes32",
          "name": "",
          "type": "bytes32"
        }
      ],
      "stateMutability": "view",
      "type": "function"
    },
    {
      "inputs": [
        {
          "internalType": "address",
          "name": "",
          "type": "address"
        }
      ],
      "name": "accumulatedYield",
      "outputs": [
        {
          "internalType": "uint256",
          "name": "",
          "type": "uint256"
        }
      ],
      "stateMutability": "view",
      "type": "function"
    },
    {
      "inputs": [],
      "name": "admin",
      "outputs": [
        {
          "internalType": "address",
          "name": "",
          "type": "address"
        }
      ],
      "stateMutability": "view",
      "type": "function"
    },
    {
      "inputs": [
        {
          "internalType": "address",
          "name": "user",
          "type": "address"
        }
      ],
      "name": "balanceOf",
      "outputs": [
        {
          "internalType": "uint256",
          "name": "",
          "type": "uint256"
        }
      ],
      "stateMutability": "view",
      "type": "function"
    },
    {
      "inputs": [],
      "name": "claimYield",
      "outputs": [
        {
          "internalType": "uint256",
          "name": "",
          "type": "uint256"
        }
      ],
      "stateMutability": "nonpayable",
      "type": "function"
    },
    {
      "inputs": [
        {
          "internalType": "uint256",
          "name": "amount",
          "type": "uint256"
        }
      ],
      "name": "deposit",
      "outputs": [],
      "stateMutability": "nonpayable",
      "type": "function"
    },
    {
      "inputs": [],
      "name": "depositFee",
      "outputs": [
        {
          "internalType": "uint256",
          "name": "",
          "type": "uint256"
        }
      ],
      "stateMutability": "view",
      "type": "function"
    },
    {
      "inputs": [],
      "name": "depositsPaused",
      "outputs": [
        {
          "internalType": "bool",
          "name": "",
          "type": "bool"
        }
      ],
      "stateMutability": "view",
      "type": "function"
    },
    {
      "inputs": [],
      "name": "getDepositFee",
      "outputs": [
        {
          "internalType": "uint256",
          "name": "",
          "type": "uint256"
        }
      ],
      "stateMutability": "view",
      "type": "function"
    },
    {
      "inputs": [],
      "name": "getImplementationVersion",
      "outputs": [
        {
          "internalType": "string",
          "name": "",
          "type": "string"
        }
      ],
      "stateMutability": "pure",
      "type": "function"
    },
    {
      "inputs": [
        {
          "internalType": "bytes32",
          "name": "role",
          "type": "bytes32"
        }
      ],
      "name": "getRoleAdmin",
      "outputs": [
        {
          "internalType": "bytes32",
          "name": "",
          "type": "bytes32"
        }
      ],
      "stateMutability": "view",
      "type": "function"
    },
    {
      "inputs": [
        {
          "internalType": "address",
          "name": "user",
          "type": "address"
        }
      ],
      "name": "getUserYield",
      "outputs": [
        {
          "internalType": "uint256",
          "name": "",
          "type": "uint256"
        }
      ],
      "stateMutability": "view",
      "type": "function"
    },
    {
      "inputs": [],
      "name": "getYieldRate",
      "outputs": [
        {
          "internalType": "uint256",
          "name": "",
          "type": "uint256"
        }
      ],
      "stateMutability": "view",
      "type": "function"
    },
    {
      "inputs": [
        {
          "internalType": "bytes32",
          "name": "role",
          "type": "bytes32"
        },
        {
          "internalType": "address",
          "name": "account",
          "type": "address"
        }
      ],
      "name": "grantRole",
      "outputs": [],
      "stateMutability": "nonpayable",
      "type": "function"
    },
    {
      "inputs": [
        {
          "internalType": "bytes32",
          "name": "role",
          "type": "bytes32"
        },
        {
          "internalType": "address",
          "name": "account",
          "type": "address"
        }
      ],
      "name": "hasRole",
      "outputs": [
        {
          "internalType": "bool",
          "name": "",
          "type": "bool"
        }
      ],
      "stateMutability": "view",
      "type": "function"
    },
    {
      "inputs": [
        {
          "internalType": "uint256",
          "name": "_yieldRate",
          "type": "uint256"
        }
      ],
      "name": "initializeV2",
      "outputs": [],
      "stateMutability": "nonpayable",
      "type": "function"
    },
    {
      "inputs": [],
      "name": "isDepositsPaused",
      "outputs": [
        {
          "internalType": "bool",
          "name": "",
          "type": "bool"
        }
      ],
      "stateMutability": "view",
      "type": "function"
    },
    {
      "inputs": [
        {
          "internalType": "address",
          "name": "",
          "type": "address"
        }
      ],
      "name": "lastClaimTime",
      "outputs": [
        {
          "internalType": "uint256",
          "name": "",
          "type": "uint256"
        }
      ],
      "stateMutability": "view",
      "type": "function"
    },
    {
      "inputs": [],
      "name": "pauseDeposits",
      "outputs": [],
      "stateMutability": "nonpayable",
      "type": "function"
    },
    {
      "inputs": [],
      "name": "proxiableUUID",
      "outputs": [
        {
          "internalType": "bytes32",
          "name": "",
          "type": "bytes32"
        }
      ],
      "stateMutability": "view",
      "type": "function"
    },
    {
      "inputs": [
        {
          "internalType": "bytes32",
          "name": "role",
          "type": "bytes32"
        },
        {
          "internalType": "address",
          "name": "account",
          "type": "address"
        }
      ],
      "name": "renounceRole",
      "outputs": [],
      "stateMutability": "nonpayable",
      "type": "function"
    },
    {
      "inputs": [
        {
          "internalType": "bytes32",
          "name": "role",
          "type": "bytes32"
        },
        {
          "internalType": "address",
          "name": "account",
          "type": "address"
        }
      ],
      "name": "revokeRole",
      "outputs": [],
      "stateMutability": "nonpayable",
      "type": "function"
    },
    {
      "inputs": [
        {
          "internalType": "uint256",
          "name": "_yieldRate",
          "type": "uint256"
        }
      ],
      "name": "setYieldRate",
      "outputs": [],
      "stateMutability": "nonpayable",
      "type": "function"
    },
    {
      "inputs": [
        {
          "internalType": "bytes4",
          "name": "interfaceId",
          "type": "bytes4"
        }
      ],
      "name": "supportsInterface",
      "outputs": [
        {
          "internalType": "bool",
          "name": "",
          "type": "bool"
        }
      ],
      "stateMutability": "view",
      "type": "function"
    },
    {
      "inputs": [],
      "name": "token",
      "outputs": [
        {
          "internalType": "contract IERC20Upgradeable",
          "name": "",
          "type": "address"
        }
      ],
      "stateMutability": "view",
      "type": "function"
    },
    {
      "inputs": [],
      "name": "totalDepositAmount",
      "outputs": [
        {
          "internalType": "uint256",
          "name": "",
          "type": "uint256"
        }
      ],
      "stateMutability": "view",
      "type": "function"
    },
    {
      "inputs": [],
      "name": "totalDeposits",
      "outputs": [
        {
          "internalType": "uint256",
          "name": "",
          "type": "uint256"
        }
      ],
      "stateMutability": "view",
      "type": "function"
    },
    {
      "inputs": [],
      "name": "unpauseDeposits",
      "outputs": [],
      "stateMutability": "nonpayable",
      "type": "function"
    },
    {
      "inputs": [
        {
          "internalType": "address",
          "name": "newImplementation",
          "type": "address"
        }
      ],
      "name": "upgradeTo",
      "outputs": [],
      "stateMutability": "nonpayable",
      "type": "function"
    },
    {
      "inputs": [
        {
          "internalType": "address",
          "name": "newImplementation",
          "type": "address"
        },
        {
          "internalType": "bytes",
          "name": "data",
          "type": "bytes"
        }
      ],
      "name": "upgradeToAndCall",
      "outputs": [],
      "stateMutability": "payable",
      "type": "function"
    },
    {
      "inputs": [
        {
          "internalType": "address",
          "name": "",
          "type": "address"
        }
      ],
      "name": "userBalances",
      "outputs": [
        {
          "internalType": "uint256",
          "name": "",
          "type": "uint256"
        }
      ],
      "stateMutability": "view",
      "type": "function"
    },
    {
      "inputs": [
        {
          "internalType": "uint256",
          "name": "amount",
          "type": "uint256"
        }
      ],
      "name": "withdraw",
      "outputs": [],
      "stateMutability": "nonpayable",
      "type": "function"
    },
    {
      "inputs": [],
      "name": "yieldRate",
      "outputs": [
        {
          "internalType": "uint256",
          "name": "",
          "type": "uint256"
        }
      ],
      "stateMutability": "view",
      "type": "function"
    }
  ],
  "bytecode": "0x60a06040523060805234801561001457600080fd5b5061001d610022565b6100e1565b600054610100900460ff161561008e5760405162461bcd60e51b815260206004820152602760248201527f496e697469616c697a61626c653a20636f6e747261637420697320696e697469604482015266616c697a696e6760c81b606482015260840160405180910390fd5b60005460ff908116146100df576000805460ff191660ff9081179091556040519081527f7f26b83ff96e1f2b6a682f133852f6798a09c465da95921460cefb38474024989060200160405180910390a15b565b608051611f0261011860003960008181610a4201528181610a8201528181610deb01528181610e2b0152610eba0152611f026000f3fe6080604052600436106102045760003560e01c806360da3e8311610118578063b77cf9c6116100a0578063e63ab1e91161006f578063e63ab1e9146105c7578063f1009899146105e9578063f72c0d8b146105ff578063f851a44014610633578063fc0c546a1461066b57600080fd5b8063b77cf9c614610532578063bc327e4014610560578063c5408d5014610591578063d547741f146105a757600080fd5b806370a08231116100e757806370a08231146104925780637d882097146104c857806391d14854146104dd578063a217fddf146104fd578063b6b55f251461051257600080fd5b806360da3e831461043557806363d8882a1461045057806367a52793146104655780636999ac931461047b57600080fd5b80632e1a7d4d1161019b578063406cf2291161016a578063406cf229146103b85780634229abdd146103cd5780634f1ef286146103ed57806352d1902d146104005780635b4e128c1461041557600080fd5b80632e1a7d4d146103385780632f2ff15d1461035857806336568abe146103785780633659cfe61461039857600080fd5b8063248a9ca3116101d7578063248a9ca31461029457806326224c64146102c457806327042b84146102f15780632b2408311461030a57600080fd5b806301ffc9a714610209578063021919801461023e5780630de705b5146102555780631411dab014610274575b600080fd5b34801561021557600080fd5b50610229610224366004611a8a565b61068b565b60405190151581526020015b60405180910390f35b34801561024a57600080fd5b506102536106c2565b005b34801561026157600080fd5b5060fd545b604051908152602001610235565b34801561028057600080fd5b5061025361028f366004611ab4565b610722565b3480156102a057600080fd5b506102666102af366004611ab4565b600090815260c9602052604090206001015490565b3480156102d057600080fd5b506102666102df366004611ae9565b60fe6020526000908152604090205481565b3480156102fd57600080fd5b506101035460ff16610229565b34801561031657600080fd5b50610266610325366004611ae9565b6101026020526000908152604090205481565b34801561034457600080fd5b50610253610353366004611ab4565b6107c2565b34801561036457600080fd5b50610253610373366004611b04565b610990565b34801561038457600080fd5b50610253610393366004611b04565b6109ba565b3480156103a457600080fd5b506102536103b3366004611ae9565b610a38565b3480156103c457600080fd5b50610266610b17565b3480156103d957600080fd5b506102666103e8366004611ae9565b610d09565b6102536103fb366004611b46565b610de1565b34801561040c57600080fd5b50610266610ead565b34801561042157600080fd5b50610253610430366004611ab4565b610f60565b34801561044157600080fd5b50610103546102299060ff1681565b34801561045c57600080fd5b506102536110e8565b34801561047157600080fd5b5061026660fd5481565b34801561048757600080fd5b506102666101005481565b34801561049e57600080fd5b506102666104ad366004611ae9565b6001600160a01b0316600090815260fe602052604090205490565b3480156104d457600080fd5b5060ff54610266565b3480156104e957600080fd5b506102296104f8366004611b04565b61113c565b34801561050957600080fd5b50610266600081565b34801561051e57600080fd5b5061025361052d366004611ab4565b611167565b34801561053e57600080fd5b5061026661054d366004611ae9565b6101016020526000908152604090205481565b34801561056c57600080fd5b5060408051808201825260028152612b1960f11b602082015290516102359190611c2c565b34801561059d57600080fd5b5061026660ff5481565b3480156105b357600080fd5b506102536105c2366004611b04565b61138e565b3480156105d357600080fd5b50610266600080516020611e8683398151915281565b3480156105f557600080fd5b5061010054610266565b34801561060b57600080fd5b506102667f189ab7a9244df0848122154315af71fe140f3db0fe014031783b0946b8c9d2e381565b34801561063f57600080fd5b5060fc54610653906001600160a01b031681565b6040516001600160a01b039091168152602001610235565b34801561067757600080fd5b5060fb54610653906001600160a01b031681565b60006001600160e01b03198216637965db0b60e01b14806106bc57506301ffc9a760e01b6001600160e01b03198316145b92915050565b600080516020611e868339815191526106da816113b3565b610103805460ff191660019081179091556040519081527f79a0d73b50e293c1e17b973f07d567c5a14399afb5e2373c44a82e9f9109d716906020015b60405180910390a150565b600061072d816113b3565b6127108211156107845760405162461bcd60e51b815260206004820152601d60248201527f5969656c6420726174652063616e6e6f7420657863656564203130302500000060448201526064015b60405180910390fd5b6101008290556040518281527f5842a31a46ea5ce5b950bf6d04c8b832a9deae72e0e54bcf928f0d72123f2865906020015b60405180910390a15050565b600081116108125760405162461bcd60e51b815260206004820152601d60248201527f5769746864726177616c20616d6f756e74206d757374206265203e2030000000604482015260640161077b565b33600090815260fe60205260409020548111156108685760405162461bcd60e51b8152602060048201526014602482015273496e73756666696369656e742062616c616e636560601b604482015260640161077b565b33600090815260fe602052604081208054839290610887908490611c75565b925050819055508060ff60008282546108a09190611c75565b909155505060fb5460405163a9059cbb60e01b8152336004820152602481018390526001600160a01b039091169063a9059cbb906044016020604051808303816000875af11580156108f6573d6000803e3d6000fd5b505050506040513d601f19601f8201168201806040525081019061091a9190611c88565b6109585760405162461bcd60e51b815260206004820152600f60248201526e151c985b9cd9995c8819985a5b1959608a1b604482015260640161077b565b60405181815233907f7fcf532c15f0a6db0bd6d0e038bea71d30d808c7d98cb3bf7268a95bf5081b659060200160405180910390a250565b600082815260c960205260409020600101546109ab816113b3565b6109b583836113bd565b505050565b6001600160a01b0381163314610a2a5760405162461bcd60e51b815260206004820152602f60248201527f416363657373436f6e74726f6c3a2063616e206f6e6c792072656e6f756e636560448201526e103937b632b9903337b91039b2b63360891b606482015260840161077b565b610a348282611443565b5050565b6001600160a01b037f0000000000000000000000000000000000000000000000000000000000000000163003610a805760405162461bcd60e51b815260040161077b90611caa565b7f00000000000000000000000000000000000000000000000000000000000000006001600160a01b0316610ac9600080516020611e66833981519152546001600160a01b031690565b6001600160a01b031614610aef5760405162461bcd60e51b815260040161077b90611cf6565b610af8816114aa565b60408051600080825260208201909252610b14918391906114d4565b50565b33600090815260fe6020526040812054610b735760405162461bcd60e51b815260206004820152601c60248201527f4e6f2062616c616e636520746f2067656e6572617465207969656c6400000000604482015260640161077b565b3360009081526101016020526040812054610b8e9042611c75565b6101005433600090815260fe60205260408120549293509164496cebb800918491610bb99190611d42565b610bc39190611d42565b610bcd9190611d59565b336000908152610102602052604081205491925090610bed908390611d7b565b336000818152610102602090815260408083208390556101019091529081902042905560fb54905163a9059cbb60e01b81526004810192909252602482018390529192506001600160a01b039091169063a9059cbb906044016020604051808303816000875af1158015610c65573d6000803e3d6000fd5b505050506040513d601f19601f82011682018060405250810190610c899190611c88565b610ccd5760405162461bcd60e51b8152602060048201526015602482015274165a595b19081d1c985b9cd9995c8819985a5b1959605a1b604482015260640161077b565b60405181815233907fc04825ba3f383b602255d2a13065a68e325c65c9e0ed5d031ea2b06f641873af9060200160405180910390a29392505050565b6001600160a01b038116600090815260fe60205260408120548103610d4557506001600160a01b03166000908152610102602052604090205490565b6001600160a01b03821660009081526101016020526040812054610d699042611c75565b610100546001600160a01b038516600090815260fe60205260408120549293509164496cebb800918491610d9d9190611d42565b610da79190611d42565b610db19190611d59565b6001600160a01b03851660009081526101026020526040902054909150610dd9908290611d7b565b949350505050565b6001600160a01b037f0000000000000000000000000000000000000000000000000000000000000000163003610e295760405162461bcd60e51b815260040161077b90611caa565b7f00000000000000000000000000000000000000000000000000000000000000006001600160a01b0316610e72600080516020611e66833981519152546001600160a01b031690565b6001600160a01b031614610e985760405162461bcd60e51b815260040161077b90611cf6565b610ea1826114aa565b610a34828260016114d4565b6000306001600160a01b037f00000000000000000000000000000000000000000000000000000000000000001614610f4d5760405162461bcd60e51b815260206004820152603860248201527f555550535570677261646561626c653a206d757374206e6f742062652063616c60448201527f6c6564207468726f7567682064656c656761746563616c6c0000000000000000606482015260840161077b565b50600080516020611e6683398151915290565b600054600290610100900460ff16158015610f82575060005460ff8083169116105b610fe55760405162461bcd60e51b815260206004820152602e60248201527f496e697469616c697a61626c653a20636f6e747261637420697320616c72656160448201526d191e481a5b9a5d1a585b1a5e995960921b606482015260840161077b565b6000805461ffff191660ff83161761010017905561271082111561104b5760405162461bcd60e51b815260206004820152601d60248201527f5969656c6420726174652063616e6e6f74206578636565642031303025000000604482015260640161077b565b610100829055610103805460ff1916905560fc5461108190600080516020611e86833981519152906001600160a01b031661113c565b6110aa5760fc546110aa90600080516020611e86833981519152906001600160a01b03166113bd565b6000805461ff001916905560405160ff821681527f7f26b83ff96e1f2b6a682f133852f6798a09c465da95921460cefb3847402498906020016107b6565b600080516020611e86833981519152611100816113b3565b610103805460ff19169055604051600081527f79a0d73b50e293c1e17b973f07d567c5a14399afb5e2373c44a82e9f9109d71690602001610717565b600091825260c9602090815260408084206001600160a01b0393909316845291905290205460ff1690565b6101035460ff16156111b15760405162461bcd60e51b815260206004820152601360248201527211195c1bdcda5d1cc8185c99481c185d5cd959606a1b604482015260640161077b565b600081116112015760405162461bcd60e51b815260206004820152601a60248201527f4465706f73697420616d6f756e74206d757374206265203e2030000000000000604482015260640161077b565b600061271060fd54836112149190611d42565b61121e9190611d59565b9050600061122c8284611c75565b60fb546040516323b872dd60e01b8152336004820152306024820152604481018690529192506001600160a01b0316906323b872dd906064016020604051808303816000875af1158015611284573d6000803e3d6000fd5b505050506040513d601f19601f820116820180604052508101906112a89190611c88565b6112e65760405162461bcd60e51b815260206004820152600f60248201526e151c985b9cd9995c8819985a5b1959608a1b604482015260640161077b565b33600090815260fe602052604081208054839290611305908490611d7b565b925050819055508060ff600082825461131e9190611d7b565b90915550503360009081526101016020526040812054900361134e57336000908152610101602052604090204290555b604080518281526020810184905233917f90890809c654f11d6e72a28fa60149770a0d11ec6c92319d6ceb2bb0a4ea1a15910160405180910390a2505050565b600082815260c960205260409020600101546113a9816113b3565b6109b58383611443565b610b14813361163f565b6113c7828261113c565b610a3457600082815260c9602090815260408083206001600160a01b03851684529091529020805460ff191660011790556113ff3390565b6001600160a01b0316816001600160a01b0316837f2f8788117e7eff1d82e926ec794901d17c78024a50270940304540a733656f0d60405160405180910390a45050565b61144d828261113c565b15610a3457600082815260c9602090815260408083206001600160a01b0385168085529252808320805460ff1916905551339285917ff6391f5c32d9c69d2a47ea670b442974b53935d1edc7fd64eb21e047a839171b9190a45050565b7f189ab7a9244df0848122154315af71fe140f3db0fe014031783b0946b8c9d2e3610a34816113b3565b7f4910fdfa16fed3260ed0e7147f7cc6da11a60208b5b9406d12a635614ffd91435460ff1615611507576109b583611698565b826001600160a01b03166352d1902d6040518163ffffffff1660e01b8152600401602060405180830381865afa925050508015611561575060408051601f3d908101601f1916820190925261155e91810190611d8e565b60015b6115c45760405162461bcd60e51b815260206004820152602e60248201527f45524331393637557067726164653a206e657720696d706c656d656e7461746960448201526d6f6e206973206e6f74205555505360901b606482015260840161077b565b600080516020611e6683398151915281146116335760405162461bcd60e51b815260206004820152602960248201527f45524331393637557067726164653a20756e737570706f727465642070726f786044820152681a58589b195555525160ba1b606482015260840161077b565b506109b5838383611734565b611649828261113c565b610a34576116568161175f565b611661836020611771565b604051602001611672929190611da7565b60408051601f198184030181529082905262461bcd60e51b825261077b91600401611c2c565b6001600160a01b0381163b6117055760405162461bcd60e51b815260206004820152602d60248201527f455243313936373a206e657720696d706c656d656e746174696f6e206973206e60448201526c1bdd08184818dbdb9d1c9858dd609a1b606482015260840161077b565b600080516020611e6683398151915280546001600160a01b0319166001600160a01b0392909216919091179055565b61173d83611914565b60008251118061174a5750805b156109b5576117598383611954565b50505050565b60606106bc6001600160a01b03831660145b60606000611780836002611d42565b61178b906002611d7b565b67ffffffffffffffff8111156117a3576117a3611b30565b6040519080825280601f01601f1916602001820160405280156117cd576020820181803683370190505b509050600360fc1b816000815181106117e8576117e8611e1c565b60200101906001600160f81b031916908160001a905350600f60fb1b8160018151811061181757611817611e1c565b60200101906001600160f81b031916908160001a905350600061183b846002611d42565b611846906001611d7b565b90505b60018111156118be576f181899199a1a9b1b9c1cb0b131b232b360811b85600f166010811061187a5761187a611e1c565b1a60f81b82828151811061189057611890611e1c565b60200101906001600160f81b031916908160001a90535060049490941c936118b781611e32565b9050611849565b50831561190d5760405162461bcd60e51b815260206004820181905260248201527f537472696e67733a20686578206c656e67746820696e73756666696369656e74604482015260640161077b565b9392505050565b61191d81611698565b6040516001600160a01b038216907fbc7cd75a20ee27fd9adebab32041f755214dbc6bffa90cc0225b39da2e5c2d3b90600090a250565b606061190d8383604051806060016040528060278152602001611ea6602791396060600080856001600160a01b0316856040516119919190611e49565b600060405180830381855af49150503d80600081146119cc576040519150601f19603f3d011682016040523d82523d6000602084013e6119d1565b606091505b50915091506119e2868383876119ec565b9695505050505050565b60608315611a5b578251600003611a54576001600160a01b0385163b611a545760405162461bcd60e51b815260206004820152601d60248201527f416464726573733a2063616c6c20746f206e6f6e2d636f6e7472616374000000604482015260640161077b565b5081610dd9565b610dd98383815115611a705781518083602001fd5b8060405162461bcd60e51b815260040161077b9190611c2c565b600060208284031215611a9c57600080fd5b81356001600160e01b03198116811461190d57600080fd5b600060208284031215611ac657600080fd5b5035919050565b80356001600160a01b0381168114611ae457600080fd5b919050565b600060208284031215611afb57600080fd5b61190d82611acd565b60008060408385031215611b1757600080fd5b82359150611b2760208401611acd565b90509250929050565b634e487b7160e01b600052604160045260246000fd5b60008060408385031215611b5957600080fd5b611b6283611acd565b9150602083013567ffffffffffffffff80821115611b7f57600080fd5b818501915085601f830112611b9357600080fd5b813581811115611ba557611ba5611b30565b604051601f8201601f19908116603f01168101908382118183101715611bcd57611bcd611b30565b81604052828152886020848701011115611be657600080fd5b8260208601602083013760006020848301015280955050505050509250929050565b60005b83811015611c23578181015183820152602001611c0b565b50506000910152565b6020815260008251806020840152611c4b816040850160208701611c08565b601f01601f19169190910160400192915050565b634e487b7160e01b600052601160045260246000fd5b818103818111156106bc576106bc611c5f565b600060208284031215611c9a57600080fd5b8151801515811461190d57600080fd5b6020808252602c908201527f46756e6374696f6e206d7573742062652063616c6c6564207468726f7567682060408201526b19195b1959d85d1958d85b1b60a21b606082015260800190565b6020808252602c908201527f46756e6374696f6e206d7573742062652063616c6c6564207468726f7567682060408201526b6163746976652070726f787960a01b606082015260800190565b80820281158282048414176106bc576106bc611c5f565b600082611d7657634e487b7160e01b600052601260045260246000fd5b500490565b808201808211156106bc576106bc611c5f565b600060208284031215611da057600080fd5b5051919050565b7f416363657373436f6e74726f6c3a206163636f756e7420000000000000000000815260008351611ddf816017850160208801611c08565b7001034b99036b4b9b9b4b733903937b6329607d1b6017918401918201528351611e10816028840160208801611c08565b01602801949350505050565b634e487b7160e01b600052603260045260246000fd5b600081611e4157611e41611c5f565b506000190190565b60008251611e5b818460208701611c08565b919091019291505056fe360894a13ba1a3210667c828492db98dca3e2076cc3735a920a3ca505d382bbc65d7a28e3265b37a6474929f336521b332c1681b933f6cb9f3376673440d862a416464726573733a206c6f772d6c6576656c2064656c65676174652063616c6c206661696c6564a264697066735822122079fcbaed17170d73f8d55a2dddaa885b6ab19b56ceef6cce6415e8d0a81d7ffb64736f6c63430008140033",
  "linkReferences": {},
  "deployedLinkReferences": {}
}