{
  "_format": "hh-sol-artifact-1",
  "contractName": "TokenVaultV1",
  "sourceName": "contracts/TokenVaultV1.sol",
  "abi": [
    {
      "inputs": [],
      "stateMutability": "nonpayable",
      "type": "constructor"
    },
    {
      "anonymous": false,
      "inputs": [
        {
          "indexed": false,
          "internalType": "address",
          "name": "previousAdmin",
          "type": "address"
        },
        {
          "indexed": false,
          "internalType": "address",
          "name": "newAdmin",
          "type": "address"
        }
      ],
      "name": "AdminChanged",
      "type": "event"
    },
    {
      "anonymous": false,
      "inputs": [
        {
          "indexed": true,
          "internalType": "address",
          "name": "beacon",
          "type": "address"
        }
      ],
      "name": "BeaconUpgraded",
      "type": "event"
    },
    {
      "anonymous": false,
      "inputs": [
        {
          "indexed": true,
          "internalType": "address",
          "name": "user",
          "type": "address"
        },
        {
          "indexed": false,
          "internalType": "uint256",
          "name": "amount",
          "type": "uint256"
        },
        {
          "indexed": false,
          "internalType": "uint256",
          "name": "fee",
          "type": "uint256"
        }
      ],
      "name": "Deposit",
      "type": "event"
    },
    {
      "anonymous": false,
      "inputs": [
        {
          "indexed": false,
          "internalType": "uint256",
          "name": "newFee",
          "type": "uint256"
        }
      ],
      "name": "FeeUpdated",
      "type": "event"
    },
    {
      "anonymous": false,
      "inputs": [
        {
          "indexed": false,
          "internalType": "uint8",
          "name": "version",
          "type": "uint8"
        }
      ],
      "name": "Initialized",
      "type": "event"
    },
    {
      "anonymous": false,
      "inputs": [
        {
          "indexed": true,
          "internalType": "bytes32",
          "name": "role",
          "type": "bytes32"
        },
        {
          "indexed": true,
          "internalType": "bytes32",
          "name": "previousAdminRole",
          "type": "bytes32"
        },
        {
          "indexed": true,
          "internalType": "bytes32",
          "name": "newAdminRole",
          "type": "bytes32"
        }
      ],
      "name": "RoleAdminChanged",
      "type": "event"
    },
    {
      "anonymous": false,
      "inputs": [
        {
          "indexed": true,
          "internalType": "bytes32",
          "name": "role",
          "type": "bytes32"
        },
        {
          "indexed": true,
          "internalType": "address",
          "name": "account",
          "type": "address"
        },
        {
          "indexed": true,
          "internalType": "address",
          "name": "sender",
          "type": "address"
        }
      ],
      "name": "RoleGranted",
      "type": "event"
    },
    {
      "anonymous": false,
      "inputs": [
        {
          "indexed": true,
          "internalType": "bytes32",
          "name": "role",
          "type": "bytes32"
        },
        {
          "indexed": true,
          "internalType": "address",
          "name": "account",
          "type": "address"
        },
        {
          "indexed": true,
          "internalType": "address",
          "name": "sender",
          "type": "address"
        }
      ],
      "name": "RoleRevoked",
      "type": "event"
    },
    {
      "anonymous": false,
      "inputs": [
        {
          "indexed": true,
          "internalType": "address",
          "name": "implementation",
          "type": "address"
        }
      ],
      "name": "Upgraded",
      "type": "event"
    },
    {
      "anonymous": false,
      "inputs": [
        {
          "indexed": true,
          "internalType": "address",
          "name": "user",
          "type": "address"
        },
        {
          "indexed": false,
          "internalType": "uint256",
          "name": "amount",
          "type": "uint256"
        }
      ],
      "name": "Withdrawal",
      "type": "event"
    },
    {
      "inputs": [],
      "name": "DEFAULT_ADMIN_ROLE",
      "outputs": [
        {
          "internalType": "bytes32",
          "name": "",
          "type": "bytes32"
        }
      ],
      "stateMutability": "view",
      "type": "function"
    },
    {
      "inputs": [],
      "name": "UPGRADER_ROLE",
      "outputs": [
        {
          "internalType": "bytes32",
          "name": "",
          "type": "bytes32"
        }
      ],
      "stateMutability": "view",
      "type": "function"
    },
    {
      "inputs": [],
      "name": "admin",
      "outputs": [
        {
          "internalType": "address",
          "name": "",
          "type": "address"
        }
      ],
      "stateMutability": "view",
      "type": "function"
    },
    {
      "inputs": [
        {
          "internalType": "address",
          "name": "user",
          "type": "address"
        }
      ],
      "name": "balanceOf",
      "outputs": [
        {
          "internalType": "uint256",
          "name": "",
          "type": "uint256"
        }
      ],
      "stateMutability": "view",
      "type": "function"
    },
    {
      "inputs": [
        {
          "internalType": "uint256",
          "name": "amount",
          "type": "uint256"
        }
      ],
      "name": "deposit",
      "outputs": [],
      "stateMutability": "nonpayable",
      "type": "function"
    },
    {
      "inputs": [],
      "name": "depositFee",
      "outputs": [
        {
          "internalType": "uint256",
          "name": "",
          "type": "uint256"
        }
      ],
      "stateMutability": "view",
      "type": "function"
    },
    {
      "inputs": [],
      "name": "getDepositFee",
      "outputs": [
        {
          "internalType": "uint256",
          "name": "",
          "type": "uint256"
        }
      ],
      "stateMutability": "view",
      "type": "function"
    },
    {
      "inputs": [],
      "name": "getImplementationVersion",
      "outputs": [
        {
          "internalType": "string",
          "name": "",
          "type": "string"
        }
      ],
      "stateMutability": "pure",
      "type": "function"
    },
    {
      "inputs": [
        {
          "internalType": "bytes32",
          "name": "role",
          "type": "bytes32"
        }
      ],
      "name": "getRoleAdmin",
      "outputs": [
        {
          "internalType": "bytes32",
          "name": "",
          "type": "bytes32"
        }
      ],
      "stateMutability": "view",
      "type": "function"
    },
    {
      "inputs": [
        {
          "internalType": "bytes32",
          "name": "role",
          "type": "bytes32"
        },
        {
          "internalType": "address",
          "name": "account",
          "type": "address"
        }
      ],
      "name": "grantRole",
      "outputs": [],
      "stateMutability": "nonpayable",
      "type": "function"
    },
    {
      "inputs": [
        {
          "internalType": "bytes32",
          "name": "role",
          "type": "bytes32"
        },
        {
          "internalType": "address",
          "name": "account",
          "type": "address"
        }
      ],
      "name": "hasRole",
      "outputs": [
        {
          "internalType": "bool",
          "name": "",
          "type": "bool"
        }
      ],
      "stateMutability": "view",
      "type": "function"
    },
    {
      "inputs": [
        {
          "internalType": "address",
          "name": "_token",
          "type": "address"
        },
        {
          "internalType": "address",
          "name": "_admin",
          "type": "address"
        },
        {
          "internalType": "uint256",
          "name": "_depositFee",
          "type": "uint256"
        }
      ],
      "name": "initialize",
      "outputs": [],
      "stateMutability": "nonpayable",
      "type": "function"
    },
    {
      "inputs": [],
      "name": "proxiableUUID",
      "outputs": [
        {
          "internalType": "bytes32",
          "name": "",
          "type": "bytes32"
        }
      ],
      "stateMutability": "view",
      "type": "function"
    },
    {
      "inputs": [
        {
          "internalType": "bytes32",
          "name": "role",
          "type": "bytes32"
        },
        {
          "internalType": "address",
          "name": "account",
          "type": "address"
        }
      ],
      "name": "renounceRole",
      "outputs": [],
      "stateMutability": "nonpayable",
      "type": "function"
    },
    {
      "inputs": [
        {
          "internalType": "bytes32",
          "name": "role",
          "type": "bytes32"
        },
        {
          "internalType": "address",
          "name": "account",
          "type": "address"
        }
      ],
      "name": "revokeRole",
      "outputs": [],
      "stateMutability": "nonpayable",
      "type": "function"
    },
    {
      "inputs": [
        {
          "internalType": "bytes4",
          "name": "interfaceId",
          "type": "bytes4"
        }
      ],
      "name": "supportsInterface",
      "outputs": [
        {
          "internalType": "bool",
          "name": "",
          "type": "bool"
        }
      ],
      "stateMutability": "view",
      "type": "function"
    },
    {
      "inputs": [],
      "name": "token",
      "outputs": [
        {
          "internalType": "contract IERC20Upgradeable",
          "name": "",
          "type": "address"
        }
      ],
      "stateMutability": "view",
      "type": "function"
    },
    {
      "inputs": [],
      "name": "totalDepositAmount",
      "outputs": [
        {
          "internalType": "uint256",
          "name": "",
          "type": "uint256"
        }
      ],
      "stateMutability": "view",
      "type": "function"
    },
    {
      "inputs": [],
      "name": "totalDeposits",
      "outputs": [
        {
          "internalType": "uint256",
          "name": "",
          "type": "uint256"
        }
      ],
      "stateMutability": "view",
      "type": "function"
    },
    {
      "inputs": [
        {
          "internalType": "address",
          "name": "newImplementation",
          "type": "address"
        }
      ],
      "name": "upgradeTo",
      "outputs": [],
      "stateMutability": "nonpayable",
      "type": "function"
    },
    {
      "inputs": [
        {
          "internalType": "address",
          "name": "newImplementation",
          "type": "address"
        },
        {
          "internalType": "bytes",
          "name": "data",
          "type": "bytes"
        }
      ],
      "name": "upgradeToAndCall",
      "outputs": [],
      "stateMutability": "payable",
      "type": "function"
    },
    {
      "inputs": [
        {
          "internalType": "address",
          "name": "",
          "type": "address"
        }
      ],
      "name": "userBalances",
      "outputs": [
        {
          "internalType": "uint256",
          "name": "",
          "type": "uint256"
        }
      ],
      "stateMutability": "view",
      "type": "function"
    },
    {
      "inputs": [
        {
          "internalType": "uint256",
          "name": "amount",
          "type": "uint256"
        }
      ],
      "name": "withdraw",
      "outputs": [],
      "stateMutability": "nonpayable",
      "type": "function"
    }
  ],
  "bytecode": "0x60a06040523060805234801561001457600080fd5b5061001d610022565b6100e1565b600054610100900460ff161561008e5760405162461bcd60e51b815260206004820152602760248201527f496e697469616c697a61626c653a20636f6e747261637420697320696e697469604482015266616c697a696e6760c81b606482015260840160405180910390fd5b60005460ff908116146100df576000805460ff191660ff9081179091556040519081527f7f26b83ff96e1f2b6a682f133852f6798a09c465da95921460cefb38474024989060200160405180910390a15b565b60805161194a61011860003960008181610982015281816109c201528181610a6101528181610aa10152610b30015261194a6000f3fe6080604052600436106101405760003560e01c806367a52793116100b6578063bc327e401161006f578063bc327e4014610376578063c5408d50146103a7578063d547741f146103bd578063f72c0d8b146103dd578063f851a44014610411578063fc0c546a1461044957600080fd5b806367a52793146102c057806370a08231146102d65780637d8820971461030c57806391d1485414610321578063a217fddf14610341578063b6b55f251461035657600080fd5b80632e1a7d4d116101085780632e1a7d4d146102185780632f2ff15d1461023857806336568abe146102585780633659cfe6146102785780634f1ef2861461029857806352d1902d146102ab57600080fd5b806301ffc9a7146101455780630de705b51461017a5780631794bb3c14610199578063248a9ca3146101bb57806326224c64146101eb575b600080fd5b34801561015157600080fd5b506101656101603660046114b6565b610469565b60405190151581526020015b60405180910390f35b34801561018657600080fd5b5060fd545b604051908152602001610171565b3480156101a557600080fd5b506101b96101b43660046114fc565b6104a0565b005b3480156101c757600080fd5b5061018b6101d6366004611538565b600090815260c9602052604090206001015490565b3480156101f757600080fd5b5061018b610206366004611551565b60fe6020526000908152604090205481565b34801561022457600080fd5b506101b9610233366004611538565b610702565b34801561024457600080fd5b506101b961025336600461156c565b6108d0565b34801561026457600080fd5b506101b961027336600461156c565b6108fa565b34801561028457600080fd5b506101b9610293366004611551565b610978565b6101b96102a63660046115ae565b610a57565b3480156102b757600080fd5b5061018b610b23565b3480156102cc57600080fd5b5061018b60fd5481565b3480156102e257600080fd5b5061018b6102f1366004611551565b6001600160a01b0316600090815260fe602052604090205490565b34801561031857600080fd5b5060ff5461018b565b34801561032d57600080fd5b5061016561033c36600461156c565b610bd6565b34801561034d57600080fd5b5061018b600081565b34801561036257600080fd5b506101b9610371366004611538565b610c01565b34801561038257600080fd5b506040805180820182526002815261563160f01b602082015290516101719190611694565b3480156103b357600080fd5b5061018b60ff5481565b3480156103c957600080fd5b506101b96103d836600461156c565b610db3565b3480156103e957600080fd5b5061018b7f189ab7a9244df0848122154315af71fe140f3db0fe014031783b0946b8c9d2e381565b34801561041d57600080fd5b5060fc54610431906001600160a01b031681565b6040516001600160a01b039091168152602001610171565b34801561045557600080fd5b5060fb54610431906001600160a01b031681565b60006001600160e01b03198216637965db0b60e01b148061049a57506301ffc9a760e01b6001600160e01b03198316145b92915050565b600054610100900460ff16158080156104c05750600054600160ff909116105b806104da5750303b1580156104da575060005460ff166001145b6105425760405162461bcd60e51b815260206004820152602e60248201527f496e697469616c697a61626c653a20636f6e747261637420697320616c72656160448201526d191e481a5b9a5d1a585b1a5e995960921b60648201526084015b60405180910390fd5b6000805460ff191660011790558015610565576000805461ff0019166101001790555b6001600160a01b0384166105b35760405162461bcd60e51b8152602060048201526015602482015274496e76616c696420746f6b656e206164647265737360581b6044820152606401610539565b6001600160a01b0383166106015760405162461bcd60e51b8152602060048201526015602482015274496e76616c69642061646d696e206164647265737360581b6044820152606401610539565b61271082111561064c5760405162461bcd60e51b81526020600482015260166024820152754665652063616e6e6f7420657863656564203130302560501b6044820152606401610539565b60fb80546001600160a01b038087166001600160a01b03199283161790925560fc80549286169290911691909117905560fd82905561068c600084610dd8565b6106b67f189ab7a9244df0848122154315af71fe140f3db0fe014031783b0946b8c9d2e384610dd8565b80156106fc576000805461ff0019169055604051600181527f7f26b83ff96e1f2b6a682f133852f6798a09c465da95921460cefb38474024989060200160405180910390a15b50505050565b600081116107525760405162461bcd60e51b815260206004820152601d60248201527f5769746864726177616c20616d6f756e74206d757374206265203e20300000006044820152606401610539565b33600090815260fe60205260409020548111156107a85760405162461bcd60e51b8152602060048201526014602482015273496e73756666696369656e742062616c616e636560601b6044820152606401610539565b33600090815260fe6020526040812080548392906107c79084906116dd565b925050819055508060ff60008282546107e091906116dd565b909155505060fb5460405163a9059cbb60e01b8152336004820152602481018390526001600160a01b039091169063a9059cbb906044016020604051808303816000875af1158015610836573d6000803e3d6000fd5b505050506040513d601f19601f8201168201806040525081019061085a91906116f0565b6108985760405162461bcd60e51b815260206004820152600f60248201526e151c985b9cd9995c8819985a5b1959608a1b6044820152606401610539565b60405181815233907f7fcf532c15f0a6db0bd6d0e038bea71d30d808c7d98cb3bf7268a95bf5081b659060200160405180910390a250565b600082815260c960205260409020600101546108eb81610e5e565b6108f58383610dd8565b505050565b6001600160a01b038116331461096a5760405162461bcd60e51b815260206004820152602f60248201527f416363657373436f6e74726f6c3a2063616e206f6e6c792072656e6f756e636560448201526e103937b632b9903337b91039b2b63360891b6064820152608401610539565b6109748282610e68565b5050565b6001600160a01b037f00000000000000000000000000000000000000000000000000000000000000001630036109c05760405162461bcd60e51b815260040161053990611712565b7f00000000000000000000000000000000000000000000000000000000000000006001600160a01b0316610a096000805160206118ce833981519152546001600160a01b031690565b6001600160a01b031614610a2f5760405162461bcd60e51b81526004016105399061175e565b610a3881610ecf565b60408051600080825260208201909252610a5491839190610ef9565b50565b6001600160a01b037f0000000000000000000000000000000000000000000000000000000000000000163003610a9f5760405162461bcd60e51b815260040161053990611712565b7f00000000000000000000000000000000000000000000000000000000000000006001600160a01b0316610ae86000805160206118ce833981519152546001600160a01b031690565b6001600160a01b031614610b0e5760405162461bcd60e51b81526004016105399061175e565b610b1782610ecf565b61097482826001610ef9565b6000306001600160a01b037f00000000000000000000000000000000000000000000000000000000000000001614610bc35760405162461bcd60e51b815260206004820152603860248201527f555550535570677261646561626c653a206d757374206e6f742062652063616c60448201527f6c6564207468726f7567682064656c656761746563616c6c00000000000000006064820152608401610539565b506000805160206118ce83398151915290565b600091825260c9602090815260408084206001600160a01b0393909316845291905290205460ff1690565b60008111610c515760405162461bcd60e51b815260206004820152601a60248201527f4465706f73697420616d6f756e74206d757374206265203e20300000000000006044820152606401610539565b600061271060fd5483610c6491906117aa565b610c6e91906117c1565b90506000610c7c82846116dd565b60fb546040516323b872dd60e01b8152336004820152306024820152604481018690529192506001600160a01b0316906323b872dd906064016020604051808303816000875af1158015610cd4573d6000803e3d6000fd5b505050506040513d601f19601f82011682018060405250810190610cf891906116f0565b610d365760405162461bcd60e51b815260206004820152600f60248201526e151c985b9cd9995c8819985a5b1959608a1b6044820152606401610539565b33600090815260fe602052604081208054839290610d559084906117e3565b925050819055508060ff6000828254610d6e91906117e3565b9091555050604080518281526020810184905233917f90890809c654f11d6e72a28fa60149770a0d11ec6c92319d6ceb2bb0a4ea1a15910160405180910390a2505050565b600082815260c96020526040902060010154610dce81610e5e565b6108f58383610e68565b610de28282610bd6565b61097457600082815260c9602090815260408083206001600160a01b03851684529091529020805460ff19166001179055610e1a3390565b6001600160a01b0316816001600160a01b0316837f2f8788117e7eff1d82e926ec794901d17c78024a50270940304540a733656f0d60405160405180910390a45050565b610a548133611064565b610e728282610bd6565b1561097457600082815260c9602090815260408083206001600160a01b0385168085529252808320805460ff1916905551339285917ff6391f5c32d9c69d2a47ea670b442974b53935d1edc7fd64eb21e047a839171b9190a45050565b7f189ab7a9244df0848122154315af71fe140f3db0fe014031783b0946b8c9d2e361097481610e5e565b7f4910fdfa16fed3260ed0e7147f7cc6da11a60208b5b9406d12a635614ffd91435460ff1615610f2c576108f5836110bd565b826001600160a01b03166352d1902d6040518163ffffffff1660e01b8152600401602060405180830381865afa925050508015610f86575060408051601f3d908101601f19168201909252610f83918101906117f6565b60015b610fe95760405162461bcd60e51b815260206004820152602e60248201527f45524331393637557067726164653a206e657720696d706c656d656e7461746960448201526d6f6e206973206e6f74205555505360901b6064820152608401610539565b6000805160206118ce83398151915281146110585760405162461bcd60e51b815260206004820152602960248201527f45524331393637557067726164653a20756e737570706f727465642070726f786044820152681a58589b195555525160ba1b6064820152608401610539565b506108f5838383611159565b61106e8282610bd6565b6109745761107b8161117e565b611086836020611190565b60405160200161109792919061180f565b60408051601f198184030181529082905262461bcd60e51b825261053991600401611694565b6001600160a01b0381163b61112a5760405162461bcd60e51b815260206004820152602d60248201527f455243313936373a206e657720696d706c656d656e746174696f6e206973206e60448201526c1bdd08184818dbdb9d1c9858dd609a1b6064820152608401610539565b6000805160206118ce83398151915280546001600160a01b0319166001600160a01b0392909216919091179055565b61116283611333565b60008251118061116f5750805b156108f5576106fc8383611373565b606061049a6001600160a01b03831660145b6060600061119f8360026117aa565b6111aa9060026117e3565b67ffffffffffffffff8111156111c2576111c2611598565b6040519080825280601f01601f1916602001820160405280156111ec576020820181803683370190505b509050600360fc1b8160008151811061120757611207611884565b60200101906001600160f81b031916908160001a905350600f60fb1b8160018151811061123657611236611884565b60200101906001600160f81b031916908160001a905350600061125a8460026117aa565b6112659060016117e3565b90505b60018111156112dd576f181899199a1a9b1b9c1cb0b131b232b360811b85600f166010811061129957611299611884565b1a60f81b8282815181106112af576112af611884565b60200101906001600160f81b031916908160001a90535060049490941c936112d68161189a565b9050611268565b50831561132c5760405162461bcd60e51b815260206004820181905260248201527f537472696e67733a20686578206c656e67746820696e73756666696369656e746044820152606401610539565b9392505050565b61133c816110bd565b6040516001600160a01b038216907fbc7cd75a20ee27fd9adebab32041f755214dbc6bffa90cc0225b39da2e5c2d3b90600090a250565b606061132c83836040518060600160405280602781526020016118ee602791396060600080856001600160a01b0316856040516113b091906118b1565b600060405180830381855af49150503d80600081146113eb576040519150601f19603f3d011682016040523d82523d6000602084013e6113f0565b606091505b50915091506114018683838761140b565b9695505050505050565b6060831561147a578251600003611473576001600160a01b0385163b6114735760405162461bcd60e51b815260206004820152601d60248201527f416464726573733a2063616c6c20746f206e6f6e2d636f6e74726163740000006044820152606401610539565b5081611484565b611484838361148c565b949350505050565b81511561149c5781518083602001fd5b8060405162461bcd60e51b81526004016105399190611694565b6000602082840312156114c857600080fd5b81356001600160e01b03198116811461132c57600080fd5b80356001600160a01b03811681146114f757600080fd5b919050565b60008060006060848603121561151157600080fd5b61151a846114e0565b9250611528602085016114e0565b9150604084013590509250925092565b60006020828403121561154a57600080fd5b5035919050565b60006020828403121561156357600080fd5b61132c826114e0565b6000806040838503121561157f57600080fd5b8235915061158f602084016114e0565b90509250929050565b634e487b7160e01b600052604160045260246000fd5b600080604083850312156115c157600080fd5b6115ca836114e0565b9150602083013567ffffffffffffffff808211156115e757600080fd5b818501915085601f8301126115fb57600080fd5b81358181111561160d5761160d611598565b604051601f8201601f19908116603f0116810190838211818310171561163557611635611598565b8160405282815288602084870101111561164e57600080fd5b8260208601602083013760006020848301015280955050505050509250929050565b60005b8381101561168b578181015183820152602001611673565b50506000910152565b60208152600082518060208401526116b3816040850160208701611670565b601f01601f19169190910160400192915050565b634e487b7160e01b600052601160045260246000fd5b8181038181111561049a5761049a6116c7565b60006020828403121561170257600080fd5b8151801515811461132c57600080fd5b6020808252602c908201527f46756e6374696f6e206d7573742062652063616c6c6564207468726f7567682060408201526b19195b1959d85d1958d85b1b60a21b606082015260800190565b6020808252602c908201527f46756e6374696f6e206d7573742062652063616c6c6564207468726f7567682060408201526b6163746976652070726f787960a01b606082015260800190565b808202811582820484141761049a5761049a6116c7565b6000826117de57634e487b7160e01b600052601260045260246000fd5b500490565b8082018082111561049a5761049a6116c7565b60006020828403121561180857600080fd5b5051919050565b7f416363657373436f6e74726f6c3a206163636f756e7420000000000000000000815260008351611847816017850160208801611670565b7001034b99036b4b9b9b4b733903937b6329607d1b6017918401918201528351611878816028840160208801611670565b01602801949350505050565b634e487b7160e01b600052603260045260246000fd5b6000816118a9576118a96116c7565b506000190190565b600082516118c3818460208701611670565b919091019291505056fe360894a13ba1a3210667c828492db98dca3e2076cc3735a920a3ca505d382bbc416464726573733a206c6f772d6c6576656c2064656c65676174652063616c6c206661696c6564a2646970667358221220e1ba9501a2e6b6cd45e0acfbc7326b4ec23ca93c5db97f898add61243f8697dd64736f6c63430008140033",
  "linkReferences": {},
  "deployedLinkReferences": {}
}