{
  "_format": "hh-sol-artifact-1",
  "contractName": "TokenVaultV3",
  "sourceName": "contracts/TokenVaultV3.sol",
  "abi": [
    {
      "inputs": [],
      "stateMutability": "nonpayable",
      "type": "constructor"
    },
    {
      "anonymous": false,
      "inputs": [
        {
          "indexed": false,
          "internalType": "address",
          "name": "previousAdmin",
          "type": "address"
        },
        {
          "indexed": false,
          "internalType": "address",
          "name": "newAdmin",
          "type": "address"
        }
      ],
      "name": "AdminChanged",
      "type": "event"
    },
    {
      "anonymous": false,
      "inputs": [
        {
          "indexed": true,
          "internalType": "address",
          "name": "beacon",
          "type": "address"
        }
      ],
      "name": "BeaconUpgraded",
      "type": "event"
    },
    {
      "anonymous": false,
      "inputs": [
        {
          "indexed": true,
          "internalType": "address",
          "name": "user",
          "type": "address"
        },
        {
          "indexed": false,
          "internalType": "uint256",
          "name": "amount",
          "type": "uint256"
        },
        {
          "indexed": false,
          "internalType": "uint256",
          "name": "fee",
          "type": "uint256"
        }
      ],
      "name": "Deposit",
      "type": "event"
    },
    {
      "anonymous": false,
      "inputs": [
        {
          "indexed": false,
          "internalType": "bool",
          "name": "paused",
          "type": "bool"
        }
      ],
      "name": "DepositsToggled",
      "type": "event"
    },
    {
      "anonymous": false,
      "inputs": [
        {
          "indexed": true,
          "internalType": "address",
          "name": "user",
          "type": "address"
        },
        {
          "indexed": false,
          "internalType": "uint256",
          "name": "amount",
          "type": "uint256"
        }
      ],
      "name": "EmergencyWithdrawal",
      "type": "event"
    },
    {
      "anonymous": false,
      "inputs": [
        {
          "indexed": false,
          "internalType": "uint256",
          "name": "newFee",
          "type": "uint256"
        }
      ],
      "name": "FeeUpdated",
      "type": "event"
    },
    {
      "anonymous": false,
      "inputs": [
        {
          "indexed": false,
          "internalType": "uint8",
          "name": "version",
          "type": "uint8"
        }
      ],
      "name": "Initialized",
      "type": "event"
    },
    {
      "anonymous": false,
      "inputs": [
        {
          "indexed": true,
          "internalType": "bytes32",
          "name": "role",
          "type": "bytes32"
        },
        {
          "indexed": true,
          "internalType": "bytes32",
          "name": "previousAdminRole",
          "type": "bytes32"
        },
        {
          "indexed": true,
          "internalType": "bytes32",
          "name": "newAdminRole",
          "type": "bytes32"
        }
      ],
      "name": "RoleAdminChanged",
      "type": "event"
    },
    {
      "anonymous": false,
      "inputs": [
        {
          "indexed": true,
          "internalType": "bytes32",
          "name": "role",
          "type": "bytes32"
        },
        {
          "indexed": true,
          "internalType": "address",
          "name": "account",
          "type": "address"
        },
        {
          "indexed": true,
          "internalType": "address",
          "name": "sender",
          "type": "address"
        }
      ],
      "name": "RoleGranted",
      "type": "event"
    },
    {
      "anonymous": false,
      "inputs": [
        {
          "indexed": true,
          "internalType": "bytes32",
          "name": "role",
          "type": "bytes32"
        },
        {
          "indexed": true,
          "internalType": "address",
          "name": "account",
          "type": "address"
        },
        {
          "indexed": true,
          "internalType": "address",
          "name": "sender",
          "type": "address"
        }
      ],
      "name": "RoleRevoked",
      "type": "event"
    },
    {
      "anonymous": false,
      "inputs": [
        {
          "indexed": true,
          "internalType": "address",
          "name": "implementation",
          "type": "address"
        }
      ],
      "name": "Upgraded",
      "type": "event"
    },
    {
      "anonymous": false,
      "inputs": [
        {
          "indexed": true,
          "internalType": "address",
          "name": "user",
          "type": "address"
        },
        {
          "indexed": false,
          "internalType": "uint256",
          "name": "amount",
          "type": "uint256"
        }
      ],
      "name": "Withdrawal",
      "type": "event"
    },
    {
      "anonymous": false,
      "inputs": [
        {
          "indexed": false,
          "internalType": "uint256",
          "name": "newDelay",
          "type": "uint256"
        }
      ],
      "name": "WithdrawalDelayUpdated",
      "type": "event"
    },
    {
      "anonymous": false,
      "inputs": [
        {
          "indexed": true,
          "internalType": "address",
          "name": "user",
          "type": "address"
        },
        {
          "indexed": false,
          "internalType": "uint256",
          "name": "amount",
          "type": "uint256"
        }
      ],
      "name": "WithdrawalExecuted",
      "type": "event"
    },
    {
      "anonymous": false,
      "inputs": [
        {
          "indexed": true,
          "internalType": "address",
          "name": "user",
          "type": "address"
        },
        {
          "indexed": false,
          "internalType": "uint256",
          "name": "amount",
          "type": "uint256"
        },
        {
          "indexed": false,
          "internalType": "uint256",
          "name": "requestTime",
          "type": "uint256"
        }
      ],
      "name": "WithdrawalRequested",
      "type": "event"
    },
    {
      "anonymous": false,
      "inputs": [
        {
          "indexed": true,
          "internalType": "address",
          "name": "user",
          "type": "address"
        },
        {
          "indexed": false,
          "internalType": "uint256",
          "name": "amount",
          "type": "uint256"
        }
      ],
      "name": "YieldClaimed",
      "type": "event"
    },
    {
      "anonymous": false,
      "inputs": [
        {
          "indexed": false,
          "internalType": "uint256",
          "name": "newRate",
          "type": "uint256"
        }
      ],
      "name": "YieldRateUpdated",
      "type": "event"
    },
    {
      "inputs": [],
      "name": "DEFAULT_ADMIN_ROLE",
      "outputs": [
        {
          "internalType": "bytes32",
          "name": "",
          "type": "bytes32"
        }
      ],
      "stateMutability": "view",
      "type": "function"
    },
    {
      "inputs": [],
      "name": "PAUSER_ROLE",
      "outputs": [
        {
          "internalType": "bytes32",
          "name": "",
          "type": "bytes32"
        }
      ],
      "stateMutability": "view",
      "type": "function"
    },
    {
      "inputs": [],
      "name": "UPGRADER_ROLE",
      "outputs": [
        {
          "internalType": "bytes32",
          "name": "",
          "type": "bytes32"
        }
      ],
      "stateMutability": "view",
      "type": "function"
    },
    {
      "inputs": [
        {
          "internalType": "address",
          "name": "",
          "type": "address"
        }
      ],
      "name": "accumulatedYield",
      "outputs": [
        {
          "internalType": "uint256",
          "name": "",
          "type": "uint256"
        }
      ],
      "stateMutability": "view",
      "type": "function"
    },
    {
      "inputs": [],
      "name": "admin",
      "outputs": [
        {
          "internalType": "address",
          "name": "",
          "type": "address"
        }
      ],
      "stateMutability": "view",
      "type": "function"
    },
    {
      "inputs": [
        {
          "internalType": "address",
          "name": "user",
          "type": "address"
        }
      ],
      "name": "balanceOf",
      "outputs": [
        {
          "internalType": "uint256",
          "name": "",
          "type": "uint256"
        }
      ],
      "stateMutability": "view",
      "type": "function"
    },
    {
      "inputs": [],
      "name": "claimYield",
      "outputs": [
        {
          "internalType": "uint256",
          "name": "",
          "type": "uint256"
        }
      ],
      "stateMutability": "nonpayable",
      "type": "function"
    },
    {
      "inputs": [
        {
          "internalType": "uint256",
          "name": "amount",
          "type": "uint256"
        }
      ],
      "name": "deposit",
      "outputs": [],
      "stateMutability": "nonpayable",
      "type": "function"
    },
    {
      "inputs": [],
      "name": "depositFee",
      "outputs": [
        {
          "internalType": "uint256",
          "name": "",
          "type": "uint256"
        }
      ],
      "stateMutability": "view",
      "type": "function"
    },
    {
      "inputs": [],
      "name": "depositsPaused",
      "outputs": [
        {
          "internalType": "bool",
          "name": "",
          "type": "bool"
        }
      ],
      "stateMutability": "view",
      "type": "function"
    },
    {
      "inputs": [],
      "name": "emergencyWithdraw",
      "outputs": [
        {
          "internalType": "uint256",
          "name": "",
          "type": "uint256"
        }
      ],
      "stateMutability": "nonpayable",
      "type": "function"
    },
    {
      "inputs": [],
      "name": "executeWithdrawal",
      "outputs": [
        {
          "internalType": "uint256",
          "name": "",
          "type": "uint256"
        }
      ],
      "stateMutability": "nonpayable",
      "type": "function"
    },
    {
      "inputs": [],
      "name": "getDepositFee",
      "outputs": [
        {
          "internalType": "uint256",
          "name": "",
          "type": "uint256"
        }
      ],
      "stateMutability": "view",
      "type": "function"
    },
    {
      "inputs": [],
      "name": "getImplementationVersion",
      "outputs": [
        {
          "internalType": "string",
          "name": "",
          "type": "string"
        }
      ],
      "stateMutability": "pure",
      "type": "function"
    },
    {
      "inputs": [
        {
          "internalType": "bytes32",
          "name": "role",
          "type": "bytes32"
        }
      ],
      "name": "getRoleAdmin",
      "outputs": [
        {
          "internalType": "bytes32",
          "name": "",
          "type": "bytes32"
        }
      ],
      "stateMutability": "view",
      "type": "function"
    },
    {
      "inputs": [
        {
          "internalType": "address",
          "name": "user",
          "type": "address"
        }
      ],
      "name": "getUserYield",
      "outputs": [
        {
          "internalType": "uint256",
          "name": "",
          "type": "uint256"
        }
      ],
      "stateMutability": "view",
      "type": "function"
    },
    {
      "inputs": [],
      "name": "getWithdrawalDelay",
      "outputs": [
        {
          "internalType": "uint256",
          "name": "",
          "type": "uint256"
        }
      ],
      "stateMutability": "view",
      "type": "function"
    },
    {
      "inputs": [
        {
          "internalType": "address",
          "name": "user",
          "type": "address"
        }
      ],
      "name": "getWithdrawalRequest",
      "outputs": [
        {
          "internalType": "uint256",
          "name": "amount",
          "type": "uint256"
        },
        {
          "internalType": "uint256",
          "name": "requestTime",
          "type": "uint256"
        }
      ],
      "stateMutability": "view",
      "type": "function"
    },
    {
      "inputs": [],
      "name": "getYieldRate",
      "outputs": [
        {
          "internalType": "uint256",
          "name": "",
          "type": "uint256"
        }
      ],
      "stateMutability": "view",
      "type": "function"
    },
    {
      "inputs": [
        {
          "internalType": "bytes32",
          "name": "role",
          "type": "bytes32"
        },
        {
          "internalType": "address",
          "name": "account",
          "type": "address"
        }
      ],
      "name": "grantRole",
      "outputs": [],
      "stateMutability": "nonpayable",
      "type": "function"
    },
    {
      "inputs": [
        {
          "internalType": "bytes32",
          "name": "role",
          "type": "bytes32"
        },
        {
          "internalType": "address",
          "name": "account",
          "type": "address"
        }
      ],
      "name": "hasRole",
      "outputs": [
        {
          "internalType": "bool",
          "name": "",
          "type": "bool"
        }
      ],
      "stateMutability": "view",
      "type": "function"
    },
    {
      "inputs": [
        {
          "internalType": "uint256",
          "name": "_withdrawalDelay",
          "type": "uint256"
        }
      ],
      "name": "initializeV3",
      "outputs": [],
      "stateMutability": "nonpayable",
      "type": "function"
    },
    {
      "inputs": [],
      "name": "isDepositsPaused",
      "outputs": [
        {
          "internalType": "bool",
          "name": "",
          "type": "bool"
        }
      ],
      "stateMutability": "view",
      "type": "function"
    },
    {
      "inputs": [
        {
          "internalType": "address",
          "name": "",
          "type": "address"
        }
      ],
      "name": "lastClaimTime",
      "outputs": [
        {
          "internalType": "uint256",
          "name": "",
          "type": "uint256"
        }
      ],
      "stateMutability": "view",
      "type": "function"
    },
    {
      "inputs": [],
      "name": "pauseDeposits",
      "outputs": [],
      "stateMutability": "nonpayable",
      "type": "function"
    },
    {
      "inputs": [],
      "name": "proxiableUUID",
      "outputs": [
        {
          "internalType": "bytes32",
          "name": "",
          "type": "bytes32"
        }
      ],
      "stateMutability": "view",
      "type": "function"
    },
    {
      "inputs": [
        {
          "internalType": "bytes32",
          "name": "role",
          "type": "bytes32"
        },
        {
          "internalType": "address",
          "name": "account",
          "type": "address"
        }
      ],
      "name": "renounceRole",
      "outputs": [],
      "stateMutability": "nonpayable",
      "type": "function"
    },
    {
      "inputs": [
        {
          "internalType": "uint256",
          "name": "amount",
          "type": "uint256"
        }
      ],
      "name": "requestWithdrawal",
      "outputs": [],
      "stateMutability": "nonpayable",
      "type": "function"
    },
    {
      "inputs": [
        {
          "internalType": "bytes32",
          "name": "role",
          "type": "bytes32"
        },
        {
          "internalType": "address",
          "name": "account",
          "type": "address"
        }
      ],
      "name": "revokeRole",
      "outputs": [],
      "stateMutability": "nonpayable",
      "type": "function"
    },
    {
      "inputs": [
        {
          "internalType": "uint256",
          "name": "_delaySeconds",
          "type": "uint256"
        }
      ],
      "name": "setWithdrawalDelay",
      "outputs": [],
      "stateMutability": "nonpayable",
      "type": "function"
    },
    {
      "inputs": [
        {
          "internalType": "uint256",
          "name": "_yieldRate",
          "type": "uint256"
        }
      ],
      "name": "setYieldRate",
      "outputs": [],
      "stateMutability": "nonpayable",
      "type": "function"
    },
    {
      "inputs": [
        {
          "internalType": "bytes4",
          "name": "interfaceId",
          "type": "bytes4"
        }
      ],
      "name": "supportsInterface",
      "outputs": [
        {
          "internalType": "bool",
          "name": "",
          "type": "bool"
        }
      ],
      "stateMutability": "view",
      "type": "function"
    },
    {
      "inputs": [],
      "name": "token",
      "outputs": [
        {
          "internalType": "contract IERC20Upgradeable",
          "name": "",
          "type": "address"
        }
      ],
      "stateMutability": "view",
      "type": "function"
    },
    {
      "inputs": [],
      "name": "totalDepositAmount",
      "outputs": [
        {
          "internalType": "uint256",
          "name": "",
          "type": "uint256"
        }
      ],
      "stateMutability": "view",
      "type": "function"
    },
    {
      "inputs": [],
      "name": "totalDeposits",
      "outputs": [
        {
          "internalType": "uint256",
          "name": "",
          "type": "uint256"
        }
      ],
      "stateMutability": "view",
      "type": "function"
    },
    {
      "inputs": [],
      "name": "unpauseDeposits",
      "outputs": [],
      "stateMutability": "nonpayable",
      "type": "function"
    },
    {
      "inputs": [
        {
          "internalType": "address",
          "name": "newImplementation",
          "type": "address"
        }
      ],
      "name": "upgradeTo",
      "outputs": [],
      "stateMutability": "nonpayable",
      "type": "function"
    },
    {
      "inputs": [
        {
          "internalType": "address",
          "name": "newImplementation",
          "type": "address"
        },
        {
          "internalType": "bytes",
          "name": "data",
          "type": "bytes"
        }
      ],
      "name": "upgradeToAndCall",
      "outputs": [],
      "stateMutability": "payable",
      "type": "function"
    },
    {
      "inputs": [
        {
          "internalType": "address",
          "name": "",
          "type": "address"
        }
      ],
      "name": "userBalances",
      "outputs": [
        {
          "internalType": "uint256",
          "name": "",
          "type": "uint256"
        }
      ],
      "stateMutability": "view",
      "type": "function"
    },
    {
      "inputs": [
        {
          "internalType": "uint256",
          "name": "amount",
          "type": "uint256"
        }
      ],
      "name": "withdraw",
      "outputs": [],
      "stateMutability": "nonpayable",
      "type": "function"
    },
    {
      "inputs": [],
      "name": "withdrawalDelay",
      "outputs": [
        {
          "internalType": "uint256",
          "name": "",
          "type": "uint256"
        }
      ],
      "stateMutability": "view",
      "type": "function"
    },
    {
      "inputs": [
        {
          "internalType": "address",
          "name": "",
          "type": "address"
        }
      ],
      "name": "withdrawalRequests",
      "outputs": [
        {
          "internalType": "uint256",
          "name": "amount",
          "type": "uint256"
        },
        {
          "internalType": "uint256",
          "name": "requestTime",
          "type": "uint256"
        }
      ],
      "stateMutability": "view",
      "type": "function"
    },
    {
      "inputs": [],
      "name": "yieldRate",
      "outputs": [
        {
          "internalType": "uint256",
          "name": "",
          "type": "uint256"
        }
      ],
      "stateMutability": "view",
      "type": "function"
    }
  ],
  "bytecode": "0x60a0604052306080523480156200001557600080fd5b506200002062000026565b620000e7565b600054610100900460ff1615620000935760405162461bcd60e51b815260206004820152602760248201527f496e697469616c697a61626c653a20636f6e747261637420697320696e697469604482015266616c697a696e6760c81b606482015260840160405180910390fd5b60005460ff90811614620000e5576000805460ff191660ff9081179091556040519081527f7f26b83ff96e1f2b6a682f133852f6798a09c465da95921460cefb38474024989060200160405180910390a15b565b6080516124f96200011f60003960008181610b9601528181610bd60152818161103f0152818161107f015261110e01526124f96000f3fe60806040526004361061025c5760003560e01c806367a5279311610144578063bc327e40116100b6578063e63ab1e91161007a578063e63ab1e91461072a578063f10098991461075e578063f72c0d8b14610774578063f851a440146107a8578063fa45aa00146107e0578063fc0c546a146107f557600080fd5b8063bc327e401461068e578063c5408d50146106bf578063d2c13da5146106d5578063d547741f146106f5578063db2e21bc1461071557600080fd5b806391d148541161010857806391d14854146105d45780639ee679e8146105f4578063a217fddf14610614578063a7ab696114610629578063b6b55f2514610640578063b77cf9c61461066057600080fd5b806367a527931461051d5780636999ac931461053357806370a082311461054a5780637d882097146105805780638c661b5d1461059557600080fd5b80632e1a7d4d116101dd578063406cf229116101a1578063406cf229146104905780634229abdd146104a55780634f1ef286146104c557806352d1902d146104d857806360da3e83146104ed57806363d8882a1461050857600080fd5b80632e1a7d4d146103f05780632f2ff15d1461041057806336568abe146104305780633659cfe6146104505780633c3d84101461047057600080fd5b8063248a9ca311610224578063248a9ca31461030257806326224c641461033257806327042b841461035f57806327b380f3146103785780632b240831146103c257600080fd5b806301ffc9a714610261578063021919801461029657806303160940146102ad5780630de705b5146102cd5780631411dab0146102e2575b600080fd5b34801561026d57600080fd5b5061028161027c366004612004565b610815565b60405190151581526020015b60405180910390f35b3480156102a257600080fd5b506102ab61084c565b005b3480156102b957600080fd5b50610104545b60405190815260200161028d565b3480156102d957600080fd5b5060fd546102bf565b3480156102ee57600080fd5b506102ab6102fd36600461202e565b6108be565b34801561030e57600080fd5b506102bf61031d36600461202e565b600090815260c9602052604090206001015490565b34801561033e57600080fd5b506102bf61034d366004612063565b60fe6020526000908152604090205481565b34801561036b57600080fd5b506101035460ff16610281565b34801561038457600080fd5b506103ad610393366004612063565b610105602052600090815260409020805460019091015482565b6040805192835260208301919091520161028d565b3480156103ce57600080fd5b506102bf6103dd366004612063565b6101026020526000908152604090205481565b3480156103fc57600080fd5b506102ab61040b36600461202e565b61095e565b34801561041c57600080fd5b506102ab61042b36600461207e565b610ae4565b34801561043c57600080fd5b506102ab61044b36600461207e565b610b0e565b34801561045c57600080fd5b506102ab61046b366004612063565b610b8c565b34801561047c57600080fd5b506102ab61048b36600461202e565b610c6b565b34801561049c57600080fd5b506102bf610d6b565b3480156104b157600080fd5b506102bf6104c0366004612063565b610f5d565b6102ab6104d33660046120c0565b611035565b3480156104e457600080fd5b506102bf611101565b3480156104f957600080fd5b50610103546102819060ff1681565b34801561051457600080fd5b506102ab6111b4565b34801561052957600080fd5b506102bf60fd5481565b34801561053f57600080fd5b506102bf6101005481565b34801561055657600080fd5b506102bf610565366004612063565b6001600160a01b0316600090815260fe602052604090205490565b34801561058c57600080fd5b5060ff546102bf565b3480156105a157600080fd5b506103ad6105b0366004612063565b6001600160a01b031660009081526101056020526040902080546001909101549091565b3480156105e057600080fd5b506102816105ef36600461207e565b61121a565b34801561060057600080fd5b506102ab61060f36600461202e565b611245565b34801561062057600080fd5b506102bf600081565b34801561063557600080fd5b506102bf6101045481565b34801561064c57600080fd5b506102ab61065b36600461202e565b61132c565b34801561066c57600080fd5b506102bf61067b366004612063565b6101016020526000908152604090205481565b34801561069a57600080fd5b506040805180820182526002815261563360f01b6020820152905161028d91906121a6565b3480156106cb57600080fd5b506102bf60ff5481565b3480156106e157600080fd5b506102ab6106f036600461202e565b611531565b34801561070157600080fd5b506102ab61071036600461207e565b611595565b34801561072157600080fd5b506102bf6115ba565b34801561073657600080fd5b506102bf7f65d7a28e3265b37a6474929f336521b332c1681b933f6cb9f3376673440d862a81565b34801561076a57600080fd5b50610100546102bf565b34801561078057600080fd5b506102bf7f189ab7a9244df0848122154315af71fe140f3db0fe014031783b0946b8c9d2e381565b3480156107b457600080fd5b5060fc546107c8906001600160a01b031681565b6040516001600160a01b03909116815260200161028d565b3480156107ec57600080fd5b506102bf61171f565b34801561080157600080fd5b5060fb546107c8906001600160a01b031681565b60006001600160e01b03198216637965db0b60e01b148061084657506301ffc9a760e01b6001600160e01b03198316145b92915050565b7f65d7a28e3265b37a6474929f336521b332c1681b933f6cb9f3376673440d862a6108768161192d565b610103805460ff191660019081179091556040519081527f79a0d73b50e293c1e17b973f07d567c5a14399afb5e2373c44a82e9f9109d716906020015b60405180910390a150565b60006108c98161192d565b6127108211156109205760405162461bcd60e51b815260206004820152601d60248201527f5969656c6420726174652063616e6e6f7420657863656564203130302500000060448201526064015b60405180910390fd5b6101008290556040518281527f5842a31a46ea5ce5b950bf6d04c8b832a9deae72e0e54bcf928f0d72123f2865906020015b60405180910390a15050565b600081116109ae5760405162461bcd60e51b815260206004820152601d60248201527f5769746864726177616c20616d6f756e74206d757374206265203e20300000006044820152606401610917565b33600090815260fe60205260409020548111156109dd5760405162461bcd60e51b8152600401610917906121d9565b33600090815260fe6020526040812080548392906109fc90849061221d565b925050819055508060ff6000828254610a15919061221d565b909155505060fb5460405163a9059cbb60e01b8152336004820152602481018390526001600160a01b039091169063a9059cbb906044016020604051808303816000875af1158015610a6b573d6000803e3d6000fd5b505050506040513d601f19601f82011682018060405250810190610a8f9190612230565b610aab5760405162461bcd60e51b815260040161091790612252565b60405181815233907f7fcf532c15f0a6db0bd6d0e038bea71d30d808c7d98cb3bf7268a95bf5081b65906020015b60405180910390a250565b600082815260c96020526040902060010154610aff8161192d565b610b098383611937565b505050565b6001600160a01b0381163314610b7e5760405162461bcd60e51b815260206004820152602f60248201527f416363657373436f6e74726f6c3a2063616e206f6e6c792072656e6f756e636560448201526e103937b632b9903337b91039b2b63360891b6064820152608401610917565b610b8882826119bd565b5050565b6001600160a01b037f0000000000000000000000000000000000000000000000000000000000000000163003610bd45760405162461bcd60e51b81526004016109179061227b565b7f00000000000000000000000000000000000000000000000000000000000000006001600160a01b0316610c1d60008051602061247d833981519152546001600160a01b031690565b6001600160a01b031614610c435760405162461bcd60e51b8152600401610917906122c7565b610c4c81611a24565b60408051600080825260208201909252610c6891839190611a4e565b50565b600054600390610100900460ff16158015610c8d575060005460ff8083169116105b610cf05760405162461bcd60e51b815260206004820152602e60248201527f496e697469616c697a61626c653a20636f6e747261637420697320616c72656160448201526d191e481a5b9a5d1a585b1a5e995960921b6064820152608401610917565b6000805461ffff191660ff83161761010017905562278d00821115610d275760405162461bcd60e51b815260040161091790612313565b6101048290556000805461ff001916905560405160ff821681527f7f26b83ff96e1f2b6a682f133852f6798a09c465da95921460cefb384740249890602001610952565b33600090815260fe6020526040812054610dc75760405162461bcd60e51b815260206004820152601c60248201527f4e6f2062616c616e636520746f2067656e6572617465207969656c64000000006044820152606401610917565b3360009081526101016020526040812054610de2904261221d565b6101005433600090815260fe60205260408120549293509164496cebb800918491610e0d9190612359565b610e179190612359565b610e219190612370565b336000908152610102602052604081205491925090610e41908390612392565b336000818152610102602090815260408083208390556101019091529081902042905560fb54905163a9059cbb60e01b81526004810192909252602482018390529192506001600160a01b039091169063a9059cbb906044016020604051808303816000875af1158015610eb9573d6000803e3d6000fd5b505050506040513d601f19601f82011682018060405250810190610edd9190612230565b610f215760405162461bcd60e51b8152602060048201526015602482015274165a595b19081d1c985b9cd9995c8819985a5b1959605a1b6044820152606401610917565b60405181815233907fc04825ba3f383b602255d2a13065a68e325c65c9e0ed5d031ea2b06f641873af9060200160405180910390a29392505050565b6001600160a01b038116600090815260fe60205260408120548103610f9957506001600160a01b03166000908152610102602052604090205490565b6001600160a01b03821660009081526101016020526040812054610fbd904261221d565b610100546001600160a01b038516600090815260fe60205260408120549293509164496cebb800918491610ff19190612359565b610ffb9190612359565b6110059190612370565b6001600160a01b0385166000908152610102602052604090205490915061102d908290612392565b949350505050565b6001600160a01b037f000000000000000000000000000000000000000000000000000000000000000016300361107d5760405162461bcd60e51b81526004016109179061227b565b7f00000000000000000000000000000000000000000000000000000000000000006001600160a01b03166110c660008051602061247d833981519152546001600160a01b031690565b6001600160a01b0316146110ec5760405162461bcd60e51b8152600401610917906122c7565b6110f582611a24565b610b8882826001611a4e565b6000306001600160a01b037f000000000000000000000000000000000000000000000000000000000000000016146111a15760405162461bcd60e51b815260206004820152603860248201527f555550535570677261646561626c653a206d757374206e6f742062652063616c60448201527f6c6564207468726f7567682064656c656761746563616c6c00000000000000006064820152608401610917565b5060008051602061247d83398151915290565b7f65d7a28e3265b37a6474929f336521b332c1681b933f6cb9f3376673440d862a6111de8161192d565b610103805460ff19169055604051600081527f79a0d73b50e293c1e17b973f07d567c5a14399afb5e2373c44a82e9f9109d716906020016108b3565b600091825260c9602090815260408084206001600160a01b0393909316845291905290205460ff1690565b600081116112955760405162461bcd60e51b815260206004820152601d60248201527f5769746864726177616c20616d6f756e74206d757374206265203e20300000006044820152606401610917565b33600090815260fe60205260409020548111156112c45760405162461bcd60e51b8152600401610917906121d9565b604080518082018252828152426020808301828152336000818152610105845286902094518555905160019094019390935583518581529081019190915290917f24b91f4f47caf44230a57777a9be744924e82bf666f2d5702faf97df35e60f9f9101610ad9565b6101035460ff16156113765760405162461bcd60e51b815260206004820152601360248201527211195c1bdcda5d1cc8185c99481c185d5cd959606a1b6044820152606401610917565b600081116113c65760405162461bcd60e51b815260206004820152601a60248201527f4465706f73697420616d6f756e74206d757374206265203e20300000000000006044820152606401610917565b600061271060fd54836113d99190612359565b6113e39190612370565b905060006113f1828461221d565b60fb546040516323b872dd60e01b8152336004820152306024820152604481018690529192506001600160a01b0316906323b872dd906064016020604051808303816000875af1158015611449573d6000803e3d6000fd5b505050506040513d601f19601f8201168201806040525081019061146d9190612230565b6114895760405162461bcd60e51b815260040161091790612252565b33600090815260fe6020526040812080548392906114a8908490612392565b925050819055508060ff60008282546114c19190612392565b9091555050336000908152610101602052604081205490036114f157336000908152610101602052604090204290555b604080518281526020810184905233917f90890809c654f11d6e72a28fa60149770a0d11ec6c92319d6ceb2bb0a4ea1a15910160405180910390a2505050565b600061153c8161192d565b62278d0082111561155f5760405162461bcd60e51b815260040161091790612313565b6101048290556040518281527fb34b8e54226bc5e8f4a9d846e344e0c42d09eeb1c79798df7ce7460c16071e2d90602001610952565b600082815260c960205260409020600101546115b08161192d565b610b0983836119bd565b33600090815260fe602052604081205461160f5760405162461bcd60e51b81526020600482015260166024820152754e6f2062616c616e636520746f20776974686472617760501b6044820152606401610917565b33600090815260fe6020818152604080842080546101058452918520858155600101859055929091529082905560ff80549192839261164f90849061221d565b909155505060fb5460405163a9059cbb60e01b8152336004820152602481018390526001600160a01b039091169063a9059cbb906044016020604051808303816000875af11580156116a5573d6000803e3d6000fd5b505050506040513d601f19601f820116820180604052508101906116c99190612230565b6116e55760405162461bcd60e51b815260040161091790612252565b60405181815233907f23d6711a1d031134a36921253c75aa59e967d38e369ac625992824315e204f209060200160405180910390a2919050565b33600090815261010560205260408120805461177d5760405162461bcd60e51b815260206004820152601d60248201527f4e6f2070656e64696e67207769746864726177616c20726571756573740000006044820152606401610917565b6101045481600101546117909190612392565b4210156117df5760405162461bcd60e51b815260206004820152601e60248201527f5769746864726177616c2064656c6179206e6f742073617469736669656400006044820152606401610917565b805433600090815260fe60205260409020548111156118105760405162461bcd60e51b8152600401610917906121d9565b3360009081526101056020908152604080832083815560010183905560fe9091528120805483929061184390849061221d565b925050819055508060ff600082825461185c919061221d565b909155505060fb5460405163a9059cbb60e01b8152336004820152602481018390526001600160a01b039091169063a9059cbb906044016020604051808303816000875af11580156118b2573d6000803e3d6000fd5b505050506040513d601f19601f820116820180604052508101906118d69190612230565b6118f25760405162461bcd60e51b815260040161091790612252565b60405181815233907f1131c2afe9ce72c59360d085f89bfdd088fcf4a3c93eec6cc5ff42f5d6b0801f9060200160405180910390a292915050565b610c688133611bb9565b611941828261121a565b610b8857600082815260c9602090815260408083206001600160a01b03851684529091529020805460ff191660011790556119793390565b6001600160a01b0316816001600160a01b0316837f2f8788117e7eff1d82e926ec794901d17c78024a50270940304540a733656f0d60405160405180910390a45050565b6119c7828261121a565b15610b8857600082815260c9602090815260408083206001600160a01b0385168085529252808320805460ff1916905551339285917ff6391f5c32d9c69d2a47ea670b442974b53935d1edc7fd64eb21e047a839171b9190a45050565b7f189ab7a9244df0848122154315af71fe140f3db0fe014031783b0946b8c9d2e3610b888161192d565b7f4910fdfa16fed3260ed0e7147f7cc6da11a60208b5b9406d12a635614ffd91435460ff1615611a8157610b0983611c12565b826001600160a01b03166352d1902d6040518163ffffffff1660e01b8152600401602060405180830381865afa925050508015611adb575060408051601f3d908101601f19168201909252611ad8918101906123a5565b60015b611b3e5760405162461bcd60e51b815260206004820152602e60248201527f45524331393637557067726164653a206e657720696d706c656d656e7461746960448201526d6f6e206973206e6f74205555505360901b6064820152608401610917565b60008051602061247d8339815191528114611bad5760405162461bcd60e51b815260206004820152602960248201527f45524331393637557067726164653a20756e737570706f727465642070726f786044820152681a58589b195555525160ba1b6064820152608401610917565b50610b09838383611cae565b611bc3828261121a565b610b8857611bd081611cd9565b611bdb836020611ceb565b604051602001611bec9291906123be565b60408051601f198184030181529082905262461bcd60e51b8252610917916004016121a6565b6001600160a01b0381163b611c7f5760405162461bcd60e51b815260206004820152602d60248201527f455243313936373a206e657720696d706c656d656e746174696f6e206973206e60448201526c1bdd08184818dbdb9d1c9858dd609a1b6064820152608401610917565b60008051602061247d83398151915280546001600160a01b0319166001600160a01b0392909216919091179055565b611cb783611e8e565b600082511180611cc45750805b15610b0957611cd38383611ece565b50505050565b60606108466001600160a01b03831660145b60606000611cfa836002612359565b611d05906002612392565b67ffffffffffffffff811115611d1d57611d1d6120aa565b6040519080825280601f01601f191660200182016040528015611d47576020820181803683370190505b509050600360fc1b81600081518110611d6257611d62612433565b60200101906001600160f81b031916908160001a905350600f60fb1b81600181518110611d9157611d91612433565b60200101906001600160f81b031916908160001a9053506000611db5846002612359565b611dc0906001612392565b90505b6001811115611e38576f181899199a1a9b1b9c1cb0b131b232b360811b85600f1660108110611df457611df4612433565b1a60f81b828281518110611e0a57611e0a612433565b60200101906001600160f81b031916908160001a90535060049490941c93611e3181612449565b9050611dc3565b508315611e875760405162461bcd60e51b815260206004820181905260248201527f537472696e67733a20686578206c656e67746820696e73756666696369656e746044820152606401610917565b9392505050565b611e9781611c12565b6040516001600160a01b038216907fbc7cd75a20ee27fd9adebab32041f755214dbc6bffa90cc0225b39da2e5c2d3b90600090a250565b6060611e87838360405180606001604052806027815260200161249d602791396060600080856001600160a01b031685604051611f0b9190612460565b600060405180830381855af49150503d8060008114611f46576040519150601f19603f3d011682016040523d82523d6000602084013e611f4b565b606091505b5091509150611f5c86838387611f66565b9695505050505050565b60608315611fd5578251600003611fce576001600160a01b0385163b611fce5760405162461bcd60e51b815260206004820152601d60248201527f416464726573733a2063616c6c20746f206e6f6e2d636f6e74726163740000006044820152606401610917565b508161102d565b61102d8383815115611fea5781518083602001fd5b8060405162461bcd60e51b815260040161091791906121a6565b60006020828403121561201657600080fd5b81356001600160e01b031981168114611e8757600080fd5b60006020828403121561204057600080fd5b5035919050565b80356001600160a01b038116811461205e57600080fd5b919050565b60006020828403121561207557600080fd5b611e8782612047565b6000806040838503121561209157600080fd5b823591506120a160208401612047565b90509250929050565b634e487b7160e01b600052604160045260246000fd5b600080604083850312156120d357600080fd5b6120dc83612047565b9150602083013567ffffffffffffffff808211156120f957600080fd5b818501915085601f83011261210d57600080fd5b81358181111561211f5761211f6120aa565b604051601f8201601f19908116603f01168101908382118183101715612147576121476120aa565b8160405282815288602084870101111561216057600080fd5b8260208601602083013760006020848301015280955050505050509250929050565b60005b8381101561219d578181015183820152602001612185565b50506000910152565b60208152600082518060208401526121c5816040850160208701612182565b601f01601f19169190910160400192915050565b602080825260149082015273496e73756666696369656e742062616c616e636560601b604082015260600190565b634e487b7160e01b600052601160045260246000fd5b8181038181111561084657610846612207565b60006020828403121561224257600080fd5b81518015158114611e8757600080fd5b6020808252600f908201526e151c985b9cd9995c8819985a5b1959608a1b604082015260600190565b6020808252602c908201527f46756e6374696f6e206d7573742062652063616c6c6564207468726f7567682060408201526b19195b1959d85d1958d85b1b60a21b606082015260800190565b6020808252602c908201527f46756e6374696f6e206d7573742062652063616c6c6564207468726f7567682060408201526b6163746976652070726f787960a01b606082015260800190565b60208082526026908201527f5769746864726177616c2064656c61792063616e6e6f7420657863656564203360408201526530206461797360d01b606082015260800190565b808202811582820484141761084657610846612207565b60008261238d57634e487b7160e01b600052601260045260246000fd5b500490565b8082018082111561084657610846612207565b6000602082840312156123b757600080fd5b5051919050565b7f416363657373436f6e74726f6c3a206163636f756e74200000000000000000008152600083516123f6816017850160208801612182565b7001034b99036b4b9b9b4b733903937b6329607d1b6017918401918201528351612427816028840160208801612182565b01602801949350505050565b634e487b7160e01b600052603260045260246000fd5b60008161245857612458612207565b506000190190565b60008251612472818460208701612182565b919091019291505056fe360894a13ba1a3210667c828492db98dca3e2076cc3735a920a3ca505d382bbc416464726573733a206c6f772d6c6576656c2064656c65676174652063616c6c206661696c6564a264697066735822122080ccd0a220f4234261728f64eddb9e9d2da778fccab55dfc7f7815a076de953164736f6c63430008140033",
  "linkReferences": {},
  "deployedLinkReferences": {}
}